{
  "contractName": "Migrations",
  "abi": [
    {
      "constant": true,
      "inputs": [],
      "name": "last_completed_migration",
      "outputs": [
        {
          "internalType": "uint256",
          "name": "",
          "type": "uint256"
        }
      ],
      "payable": false,
      "stateMutability": "view",
      "type": "function"
    },
    {
      "constant": true,
      "inputs": [],
      "name": "name",
      "outputs": [
        {
          "internalType": "string",
          "name": "",
          "type": "string"
        }
      ],
      "payable": false,
      "stateMutability": "view",
      "type": "function"
    },
    {
      "constant": true,
      "inputs": [],
      "name": "owner",
      "outputs": [
        {
          "internalType": "address",
          "name": "",
          "type": "address"
        }
      ],
      "payable": false,
      "stateMutability": "view",
      "type": "function"
    },
    {
      "constant": false,
      "inputs": [
        {
          "internalType": "uint256",
          "name": "completed",
          "type": "uint256"
        }
      ],
      "name": "setCompleted",
      "outputs": [],
      "payable": false,
      "stateMutability": "nonpayable",
      "type": "function"
    }
  ],
  "bytecode": "0x600080546001600160a01b0319163317905560c0604052600d60808190526c436f6e74726163742044656d6f60981b60a09081526100409160029190610053565b5034801561004d57600080fd5b506100ee565b828054600181600116156101000203166002900490600052602060002090601f016020900481019282601f1061009457805160ff19168380011785556100c1565b828001600101855582156100c1579182015b828111156100c15782518255916020019190600101906100a6565b506100cd9291506100d1565b5090565b6100eb91905b808211156100cd57600081556001016100d7565b90565b61027f806100fd6000396000f3fe608060405234801561001057600080fd5b506004361061004c5760003560e01c806306fdde0314610051578063445df0ac146100ce5780638da5cb5b146100e8578063fdacd5761461010c575b600080fd5b61005961012b565b6040805160208082528351818301528351919283929083019185019080838360005b8381101561009357818101518382015260200161007b565b50505050905090810190601f1680156100c05780820380516001836020036101000a031916815260200191505b509250505060405180910390f35b6100d66101b6565b60408051918252519081900360200190f35b6100f06101bc565b604080516001600160a01b039092168252519081900360200190f35b6101296004803603602081101561012257600080fd5b50356101cb565b005b6002805460408051602060018416156101000260001901909316849004601f810184900484028201840190925281815292918301828280156101ae5780601f10610183576101008083540402835291602001916101ae565b820191906000526020600020905b81548152906001019060200180831161019157829003601f168201915b505050505081565b60015481565b6000546001600160a01b031681565b6000546001600160a01b031633146102145760405162461bcd60e51b815260040180806020018281038252603181526020018061021a6031913960400191505060405180910390fd5b60015556fe546869732066756e6374696f6e206973207265737472696374656420746f2074686520636f6e7472616374206f776e6572a265627a7a7231582072b8698515e60cd4700667b16e0a83485ac746104a5155e21ac4d522d8d29a5264736f6c63430005100032",
  "source": "// SPDX-License-Identifier: MIT\npragma solidity >=0.4.22 <0.9.0;\n\ncontract Migrations {\n  address public owner = msg.sender;\n  uint public last_completed_migration;\n  string public name = \"Contract Demo\";\n\n  modifier restricted() {\n    require(\n      msg.sender == owner,\n      \"This function is restricted to the contract owner\"\n    );\n    _;\n  }\n\n  function setCompleted(uint completed) public restricted {\n    last_completed_migration = completed;\n  }\n}\n",
  "sourcePath": "/Users/sherazahmed/work/involearn/contract-deploy/contracts/Migrations.sol",
  "compiler": {
    "name": "solc",
    "version": "0.5.16+commit.9c3226ce.Emscripten.clang"
  },
  "schemaVersion": "3.4.7",
  "updatedAt": "2022-08-13T11:51:51.542Z",
  "devdoc": {
    "methods": {}
  },
  "userdoc": {
    "methods": {}
  }
}